:100000000C945E200C9486200C9486200C94862000
:100010000C9486200C9486200C9486200C948620C8
:100020000C9486200C9486200C9486200C948620B8
:100030000C9486200C9486200C9486200C948620A8
:100040000C94DC220C9486200C9430220C940A220E
:100050000C9486200C9486200C9486200C94862088
:100060000C9486200C9486200000000800020100F9
:10007000000304070000000000000000555555551E
:100080005555555555555555555555555555555520
:100090005555555555555555555555555555555510
:1000A0005555555555555555555555555555555500
:1000B00055555555555555555555555555555555F0
:1000C000555554001552AA854AAAA12A00A82855B8
:1000D00028285528285528285528285528285528BF
:1000E0002855282855282A00A84AAAA152AA85548A
:1000F0000015555555555555555555555555555545
:10010000555555415555285554A85552A85552A8EE
:100110005550285555285555285555285555285575
:1001200055285555285554281552AA8552AA855444
:100130000015555555555555555555555555555504
:10014000555554001552AA854AAAA12A80A82A15F5
:10015000284055285554A85552A1554A85552A1569
:1001600054A85552A1554A80012AAAA82AAAA840F3
:1001700000015555555555555555555555555555D8
:10018000555554001552AA854AAAA12A00A82855F7
:10019000284155285540A8552AA1552AA15540A8BF
:1001A0004155282855282A00A84AAAA152AA8554B0
:1001B0000015555555555555555555555555555584
:1001C0005555555415555285554A85552A8554AA75
:1001D0008552A2854A82852A12852802812AAAA8E8
:1001E0002AAAA840028155528555528555528555F7
:1001F00054155555555555555555555555555555F0
:1002000055554000012AAAA82AAAA82800012800BA
:10021000152AAA852AAAA14000A85555285555286F
:100220004155282855282A00A84AAAA152AA85542F
:100230000015555555555555555555555555555503
:10024000555554001552AA854AAAA12A00A8285536
:10025000282855412800152AAA852AAAA12800A8DD
:100260002855282855282A00A84AAAA152AA855408
:1002700000155555555555555555555555555555C3
:1002800055554000012AAAA82AAAA840002855547A
:10029000A85552A1554A85552A1555285555285512
:1002A00055285555285555285555285555285555DF
:1002B0004155555555555555555555555555555502
:1002C000555554001552AA854AAAA12A00A82855B6
:1002D000282855282A00A84AAAA14AAAA12A00A883
:1002E0002855282855282A00A84AAAA152AA855488
:1002F0000015555555555555555555555555555543
:10030000555554001552AA854AAAA12A00A8285575
:10031000282855282A00284AAAA852AAA854002802
:100320004155282855282A00A84AAAA152AA85542E
:100330000015555555555555555555555555555502
:10034000555555415555285554AA1552AA854A82E6
:10035000A12A14A82855282855282800282AAAA800
:100360002AAAA82800282855282855282855284191
:100370005541555555555555555555555555555541
:1003800055554000152AAA852AAAA12800A8285553
:10039000282855282800A82AAAA12AAAA12800A806
:1003A0002855282855282800A82AAAA12AAA854025
:1003B0000015555555555555555555555555555582
:1003C000555554001552AA854AAAA12A00A82855B5
:1003D00028285541285555285555285555285555EF
:1003E0002855412855282A00A84AAAA152AA85546E
:1003F0000015555555555555555555555555555542
:1004000055554001552AA8552AAA15280A8528526B
:10041000A12854A828552828552828552828552883
:100420002854A82852A1280A852AAA152AA8554086
:1004300001555555555555555555555555555555C0
:1004400055554000012AAAA82AAAA8280001285523
:10045000552855552800152AAA852AAA8528001549
:100460002855552855552800012AAAA82AAAA84087
:1004700000015555555555555555555555555555D5
:1004800055554000012AAAA82AAAA82800012855E3
:10049000552855552800152AAA852AAA8528001509
:1004A00028555528555528555528555528555541F1
:1004B00055555555555555555555555555555555EC
:1004C000555554001552AA854AAAA12A02A12855B9
:1004D00028285528285541284001282AA8282AA834
:1004E0002840282855282A00284AAAA852AAA854F1
:1004F0000001555555555555555555555555555555
:1005000055554155412855282855282855282855FE
:10051000282855282800282AAAA82AAAA828002876
:100520002855282855282855282855282855284151
:10053000554155555555555555555555555555557F
:10054000555554001552AA8552AA85542815552888
:10055000555528555528555528555528555528552C
:1005600055285555285554281552AA8552AA855400
:1005700000155555555555555555555555555555C0
:100580005555554001552AA8552AA855428155521E
:1005900085555285555285555285555285555285FA
:1005A0004152852852852A0A854AAA1552A85554CF
:1005B000015555555555555555555555555555553F
:1005C00055554155412855282854A82852A1284A54
:1005D00085282A1528A8552AA1552AA15528A855A5
:1005E000282A15284A852852A12854A82855284188
:1005F00055415555555555555555555555555555BF
:100600005555415555285555285555285555285562
:10061000552855552855552855552855552855556B
:100620002855552855552800012AAAA82AAAA840C5
:100630000001555555555555555555555555555513
:1006400055554155412855282A14A82A82A82AAA76
:10065000A828AA28282828282828284128285528D2
:100660002855282855282855282855282855284110
:10067000554155555555555555555555555555553E
:1006800055554155412855282A15282A85282A8557
:100690002828A12828A128282828282828284A28C6
:1006A000284A282852A82852A82854A82855284162
:1006B00055415555555555555555555555555555FE
:1006C000555554001552AA854AAAA12A00A82855B2
:1006D00028285528285528285528285528285528B9
:1006E0002855282855282A00A84AAAA152AA855484
:1006F000001555555555555555555555555555553F
:1007000055554000152AAA852AAAA12800A82855CF
:10071000282855282800A82AAAA12AAA8528001531
:10072000285555285555285555285555285555416E
:100730005555555555555555555555555555555569
:10074000555554001552AA854AAAA12A00A8285531
:100750002828552828552828552828412828282879
:10076000282A28284AA82A02A14AAAA852A8285416
:100770000141555555555555555555555555555591
:1007800055554000152AAA852AAAA12800A828554F
:10079000282855282800A82AAAA12AAA8528A81509
:1007A000282A15284A852852A12854A828552841C6
:1007B00055415555555555555555555555555555FD
:1007C000555554000552AAA14AAAA82A002828551E
:1007D000412855552A00154AAA8552AAA15400A8B5
:1007E0005555284155282800A82AAAA14AAA85506B
:1007F000001555555555555555555555555555553E
:1008000055554000012AAAA82AAAA840280155281F
:100810005555285555285555285555285555285569
:100820005528555528555528555528555528555559
:10083000415555555555555555555555555555557C
:1008400055554155412855282855282855282855BB
:100850002828552828552828552828552828552837
:100860002855282855282A00A84AAAA152AA855402
:1008700000155555555555555555555555555555BD
:10088000555541554128552828552828552828557B
:1008900028285528285528285528285528285528F7
:1008A0002A14A84A82A152AA8554AA15552855553A
:1008B00041555555555555555555555555555555FC
:1008C000555541554128552828552828552828553B
:1008D0002828552828412828282828282828282852
:1008E0002828282828282AAAA84AAAA1528285545A
:1008F0001415555555555555555555555555555529
:1009000055554155412855282855282855282A1439
:10091000A84A82A152AA8554AA1554AA1552AA859A
:100920004A82A12A14A82855282855282855284144
:10093000554155555555555555555555555555557B
:1009400055554155412855282855282855282855BA
:10095000282855282A14A84A82A152AA8554AA15E3
:100960005528555528555528555528555528555518
:10097000415555555555555555555555555555553B
:1009800055554000012AAAA82AAAA8400028555473
:10099000A85552A1554A85552A1554A85552A15516
:1009A0004A85552A15552800012AAAA82AAAA8402E
:1009B0000001555555555555555555555555555590
:1009C000555555555555555554001552AA8552AA99
:1009D000A15400A854002852AA284AAAA82A00A86C
:1009E0002855282855282A00A84AAAA852AA2854D7
:1009F0000041555555555555555555555555555510
:100A00005555415555285555285555284055282A9E
:100A10001528AA852AA2A12A84A82A15282A1528D9
:100A20002A15282A84A82AA2A128AA85282A15419D
:100A3000405555555555555555555555555555557B
:100A4000555555555555555555555554001552AA9A
:100A5000854AAAA12A00A8285528285528285541A2
:100A60002855412855282A00A84AAAA152AA8554E7
:100A700000155555555555555555555555555555BB
:100A8000555555554155552855552855012854A8B3
:100A90002852AA284A8AA82A12A82854A82854A862
:100AA0002854A82A12A84A8AA852AA2854A8285525
:100AB000014155555555555555555555555555554E
:100AC000555555555555555555555554001552AA1A
:100AD000854AAAA12A00A82800282AAAA82AAAA1E9
:100AE0002800052855012A00A84AAAA152AA85541F
:100AF000001555555555555555555555555555553B
:100B00005555555005554AA1552AA1552805502837
:100B1000054AAAA14AAAA150280555285555285585
:100B20005528555528555528555528555528555556
:100B30004155555555555555555555555555555579
:100B4000555555555555555554001552AA854AAA1F
:100B5000A12A00A82855282A00A84AAAA852AA28EB
:100B60005400285055284A00A84AAAA152AA8554E0
:100B700000155555555555555555555555555555BA
:100B80005555415555285555285555284055282A1D
:100B90001528AA852AA2A12A84A82A15282855281A
:100BA00028552828552828552828552828552841CB
:100BB00055415555555555555555555555555555F9
:100BC0005555555555554155552855552855554157
:100BD0005554015552A85552A855542855552855D5
:100BE000552855552855552A15554A855552855528
:100BF00054155555555555555555555555555555E6
:100C00005415555285555285555415554015552A3C
:100C100085552A85554285555285555285555285AB
:100C2000555285555285540A8552AA1552A85554D5
:100C300001555555555555555555555555555555B8
:100C40005555415555285555285555285541285530
:100C5000282854A82852A1284A85282A1528A855AA
:100C60002AAA152A8A852A12A12854A8285528417B
:100C70005541555555555555555555555555555538
:100C800055555541555528555528555528555528DC
:100C900055552855552855552855552855552855E5
:100CA00055285555285555285555285555285555D5
:100CB00041555555555555555555555555555555F8
:100CC000555555555555555555555541001528AA55
:100CD000852AAAA12A28A8282828282828282828B8
:100CE000282828282828282828282828282828416B
:100CF00041415555555555555555555555555555CC
:100D0000555555555555555555555541001528AA14
:100D1000852AAAA12A00A828552828552828552818
:100D20002855282855282855282855282855284149
:100D30005541555555555555555555555555555577
:100D4000555555555555555555555554001552AA97
:100D5000854AAAA12A00A8285528285528285528B8
:100D60002855282855282A00A84AAAA152AA8554FD
:100D700000155555555555555555555555555555B8
:100D8000555555555555555541001528AA852AAA3A
:100D9000A12A80A82A15282A15282A15282A80A8D9
:100DA0002AAAA128AA852800152855552855554155
:100DB00055555555555555555555555555555555E3
:100DC000555555555555555554004152AA284AAACE
:100DD000A82A02A82854A82854A82854A82A02A857
:100DE0004AAAA852A8A8540128555528555528554F
:100DF00055415555555555555555555555555555B7
:100E00005555555555555555555555414015282A53
:100E10008528AAA12AA0A82A85282A15412855553F
:100E20002855552855552855552855552855554167
:100E30005555555555555555555555555555555562
:100E4000555555555555555555555554001552AA96
:100E5000854AAAA12A00A82A01284AA80150AA85E1
:100E6000410AA12850A82A00A84AAAA152AA85543A
:100E700000155555555555555555555555555555B7
:100E8000555555415555285555285554281552AA9C
:100E90008552AA8554281555285555285555285545
:100EA000552855552855552A15554A855552855565
:100EB0005415555555555555555555555555555523
:100EC0005555555555555555555555415541285527
:100ED00028285528285528285528285528285528B1
:100EE0002855282855282A00A84AAAA152AA85547C
:100EF0000015555555555555555555555555555537
:100F000055555555555555555555554155412855E6
:100F10002828552828552828552828552828552870
:100F20002A14A84A82A152AA8554AA1555285555B3
:100F30004155555555555555555555555555555575
:100F400055555555555555555555554155412855A6
:100F5000282855282855282841282828282828289E
:100F60002828282828282A28A84AAAA15282855455
:100F700014155555555555555555555555555555A2
:100F80005555555555555555555555415541285566
:100F9000282A14A84A82A152AA8554AA1555285570
:100FA00054AA1552AA854A82A12A14A82855284174
:100FB00055415555555555555555555555555555F5
:100FC0005555555555555555415541285528285580
:100FD000282854A82854A82852A82A0AA84AAA2887
:100FE00052A8285401285400A852AAA152AA8554F4
:100FF0000015555555555555555555555555555536
:1010000055555555555555555555554000012AAA24
:10101000A82AAAA84000A85552A1554A85552A15C4
:1010200054A85552A1554A80012AAAA82AAAA84024
:101030000001555555555555555555555555555509
:1010400055555555555555055554A1555285554A33
:101050001555285555285555285555285555285561
:10106000552855552855554A155552855554A1555D
:101070005505555555555555555555555555555570
:10108000555555555554155552855554A155552806
:1010900055554A15554A15554A15554A15554A1577
:1010A000554A15554A1555285554A155528555543C
:1010B0001555555555555555555555555555555520
:1010C00055555555555555555555555555555555D0
:1010D00055555555555555555555555555555555C0
:1010E0005555555555555554155552855552855597
:1010F00054155555555555555555555555555555E1
:10110000555554001552AA854AAAA12A00A8285567
:10111000284155285554A85552A1554A85552A1598
:10112000552855554155554155552855552855551E
:101130004155555555555555555555555555555573
:1011400055555555555555555541555528555528BD
:101150005555415555555555555555415555285594
:1011600055285554A1555285555415555555555525
:10117000555555555555555555555555555555551F
:10118000555555555555555555415555285555287D
:101190005555415555555555555555555555555513
:1011A0005541555528555528555541555555555571
:1011B00055555555555555555555555555555555DF
:1011C00055555555555555555555555555555555CF
:1011D00055555555555555555555555555555555BF
:1011E00055415555285555285554A15552855554A6
:1011F00015555555555555555555555555555555DF
:101200005155554855552A15554A1555521555529B
:1012100015554855555155555555555555555555CF
:10122000555555555555555555555555555555556E
:10123000555555555555555555555555555555555E
:101240005555555555555555555541555528555490
:10125000A85552A1554A85552A1554A85552A1554D
:101260004A85552A155528555541555555555555B5
:10127000555555555555555555555555555555541F
:1012800055155214854A82A15284A1548521548552
:101290002152148554551555555555555555555587
:1012A00055555555555555555555555555555555EE
:1012B00055555555555555555555555555555555DE
:1012C00055555555555555555555555555555555CE
:1012D0005555000554AAA154AAA1550005555555C8
:1012E00055555555555555555555555555555555AE
:1012F000555555555555555555555555555555559E
:1013000055555555055554A15552A1554A85552A4F
:101310001554A85552A1554A85554A855552A1558F
:1013200054A855552A15554A855552A15554A155CD
:1013300055055555555555555555555555555555AD
:1013400055555055554A15554A855552A15554A8DD
:1013500055552A15554A855552A15552A1554A85CC
:10136000552A1554A85552A1554A85554A15555028
:10137000555555555555555555555555555555551D
:10138000555555555555555555005554AA155200A6
:101390008548042120A208220A08220208220A08FD
:1013A00020A22121048548550552002154AA8555C3
:1013B000001555555555555555555555556955555E
:1013C0006955556955556955556955556955556955
:1013D00055555555AA69AAAA69AA5555555569552D
:1013E0005569555569555569555569555569555549
:1013F0006955555555555555555555555555555589
:10140000555555555555555555555555555555558C
:1014100055555555AA5555AA5555555555555555D2
:10142000555555555555555555555555555555556C
:101430005555555555555555555555555569555548
:10144000555555555555555555555555555555554C
:10145000555555555555555555555555555555553C
:10146000555555555555555555555555555555552C
:10147000555555555555555555555555555555551C
:10148000555555555555555555555555555555550C
:10149000555555555555AA5555AA55555555555552
:1014A00055555555555555555555555555555555EC
:1014B00055555555555555555555555555555555DC
:1014C00055555555555555555555555555555555CC
:1014D00055555555555555555555555555555555BC
:1014E00055555555555555555555555555555555AC
:1014F0006955555555555555555555555569555574
:101500006955556955556955556955556955555527
:1015100055555555A9696AA9696A55555555555581
:101520005569555569555569555569555569555507
:101530006955555555555555555555555555555547
:10154000555555555555555555555555555555554B
:1015500055555555AA9555AA955555555555555511
:10156000555555555555555555555555555555552B
:101570005555555555555555555555555569555507
:1015800069555555555555555555555555555555F7
:1015900055555555555555555555555555555555FB
:1015A00055555555555555555555555555555555EB
:1015B00055555555555555555555555555555555DB
:1015C00055555555555555555555555555555555CB
:1015D000555555555556AA5556AA5555555555550F
:1015E00055555555555555555555555555555555AB
:1015F000555555555555555555555555555555559B
:10160000555555555555555555555555555555558A
:10161000555555555555555555555555555555557A
:101620005555555555555555555555555569555556
:101630006955555555555555555555555569555532
:1016400069555569555569555569555555555555FA
:1016500055555555A5695AA5695A55555555555568
:1016600055555555695555695555695555695555DA
:101670006955555555555555555555555555555506
:10168000555555555555555555555555555555550A
:1016900055555555AAA555AAA555555555555555B0
:1016A00055555555555555555555555555555555EA
:1016B00055555555555555555555555555695555C6
:1016C00069555569555555555555555555555555A2
:1016D00055555555555555555555555555555555BA
:1016E00055555555555555555555555555555555AA
:1016F000555555555555555555555555555555559A
:101700005555555555555555555555555555555589
:1017100055555555555AAA555AAA555555555555C5
:101720005555555555555555555555555555555569
:101730005555555555555555555555555555555559
:101740005555555555555555555555555555555549
:101750005555555555555555555555555555555539
:101760005555555555555555555569555569555501
:1017700069555555555555555555555555695555F1
:1017800069555569555569555555555555555555CD
:10179000555555559569569569565555555555554F
:1017A00055555555555555695555695555695555AD
:1017B00069555555555555555555555555555555C5
:1017C00055555555555555555555555555555555C9
:1017D00055555555AAA955AAA95555555555555567
:1017E00055555555555555555555555555555555A9
:1017F0005555555555555555555555555569555585
:10180000695555695555695555555555555555554C
:101810005555555555555555555555555555555578
:101820005555555555555555555555555555555568
:101830005555555555555555555555555555555558
:101840005555555555555555555555555555555548
:1018500055555555556AAA556AAA55555555555564
:101860005555555555555555555555555555555528
:101870005555555555555555555555555555555518
:101880005555555555555555555555555555555508
:1018900055555555555555555555555555555555F8
:1018A00055555555555555695555695555695555AC
:1018B00069555555555555555555555555695555B0
:1018C00069555569555555555555555555555555A0
:1018D0005555555555695555695555555555555590
:1018E0005555555555555555555569555569555580
:1018F0006955555555555555555555555555555584
:101900005555555555555555555555555555555587
:1019100055555555AAAA55AAAA5555555555555523
:101920005555555555555555555555555555555567
:101930005555555555555555555555555569555543
:1019400069555569555569555569555555555555F7
:101950005555555555555555555555555555555537
:101960005555555555555555555555555555555527
:101970005555555555555555555555555555555517
:101980005555555555555555555555555555555507
:101990005555555555AAAA55AAAA555555555555A3
:1019A00055555555555555555555555555555555E7
:1019B00055555555555555555555555555555555D7
:1019C00055555555555555555555555555555555C7
:1019D00055555555555555555555555555555555B7
:1019E0005555555569555569555569555569555557
:1019F000695555555555555555555555556955556F
:101A00006955555555555555555555555555555572
:101A1000555555555569555569555555555555554E
:101A20005555555555555555555555555569555552
:101A30006955555555555555555555555555555542
:101A40005555555555555555555555555555555546
:101A5000555555556AAA956AAA95555555555555E2
:101A60005555555555555555555555555555555526
:101A70005555555555555555555555555569555502
:101A800069555569555569555569555569555555A2
:101A900055555555555555555555555555555555F6
:101AA00055555555555555555555555555555555E6
:101AB00055555555555555555555555555555555D6
:101AC00055555555555555555555555555555555C6
:101AD0005555555556AAA956AAA955555555555562
:101AE00055555555555555555555555555555555A6
:101AF0005555555555555555555555555555555596
:101B00005555555555555555555555555555555585
:101B10005555555555555555555555555555555575
:101B20005569555569555569555569555569555501
:101B3000695555555555555555555555556955552D
:101B40005555555555555555555555555555555545
:101B5000555555555569555569555555555555550D
:101B60005555555555555555555555555555555525
:101B70006955555555555555555555555555555501
:101B80005555555555555555555555555555555505
:101B9000555555555AAAA55AAAA5555555555555A1
:101BA00055555555555555555555555555555555E5
:101BB00055555555555555555555555555695555C1
:101BC000695555695555695555695555695555694D
:101BD00055555555555555555555555555555555B5
:101BE00055555555555555555555555555555555A5
:101BF0005555555555555555555555555555555595
:101C00005555555555555555555555555555555584
:101C1000555555555AAAA55AAAA555555555555520
:101C20005555555555555555555555555555555564
:101C30005555555555555555555555555555555554
:101C40005555555555555555555555555555555544
:101C50005555555555555555555555555555695520
:101C600055695555695555695555695555695555C0
:101C70006955555555555555555555555555555500
:101C80005555555555555555555555555555555504
:101C900055555555556955556955555555555555CC
:101CA00055555555555555555555555555555555E4
:101CB00055555555555555555555555555555555D4
:101CC00055555555555555555555555555555555C4
:101CD0005555555556AAA956AAA955555555555560
:101CE00055555555555555555555555555555555A4
:101CF0005555555555555555555555555569555580
:101D0000695555695555695555695555695555690B
:101D1000555569555555555555555555555555555F
:101D20005555555555555555555555555555555563
:101D30005555555555555555555555555555555553
:101D40005555555555555555555555555555555543
:101D5000555555556AAA956AAA95555555555555DF
:101D60005555555555555555555555555555555523
:101D70005555555555555555555555555555555513
:101D80005555555555555555555555555555555503
:101D900055555555555555555555556955556955CB
:101DA000556955556955556955556955556955557F
:101DB00069555555555555555555555555555555BF
:101DC00055555555555555555559555659555659B5
:101DD0005556595556595556595556595556595699
:101DE000565956565959595965595995655A55551F
:101DF0005555555555555555555555555555555593
:101E00005555555555555555595555595555595576
:101E10005559555559555559555559555959555956
:101E20005955655955955956555969555A955555A8
:101E30005555555555555555555555555555555552
:101E400055555555555555555555556AAAA9655574
:101E500059655559655559655559655559655559CA
:101E60006555596555596555596555596AAAA95514
:101E70005555555555555555555555555555555512
:101E800055555555555555555555556AAAA9655534
:101E900059655559655559655559555559555559AA
:101EA000555565555565555595555A5556A555552C
:101EB00055555555555555555555555555555555D2
:101EC00055555555555555555555556555555A55AD
:101ED0005655A55655595655555655555955555952
:101EE0005555655555955556555569555A955555F8
:101EF000555555555555555555555555555559558E
:101F000055965555656555556555556555556555F0
:101F1000556555A96AAA5565555565555565555573
:101F200065555565555565555559555656AAA95582
:101F3000555555555555555555555555555569553D
:101F400055965555695555555555556AAAA955552E
:101F50005955555955555955555955556555556501
:101F6000555595555595555655556955569555554B
:101F700055555555555555555555555555556955FD
:101F800055965555695559555559556AAAA95559E2
:101F900055555955555955565965565965595959B3
:101FA00059595959595965595655595555595555AC
:101FB00055555555555555555555555555555955CD
:101FC0005596555565655555655555655555655530
:101FD000556555A96AAA55655555655555655555B3
:101FE00065555565555565555559555656AAA955C2
:101FF000555555555555555555555555555559558D
:1020000055965555655559555559556AAAA9555965
:102010005555595555595556596556596559595932
:10202000595959595959655956555955555955552B
:10203000555555555555555555555555555559554C
:10204000559655556555655555655555AAAA5595E5
:10205000565655565955566555595555595555590C
:10206000555565555565555595556A555A95555566
:10207000555555555555555555555555555559550C
:1020800055965555655555555555556AAAA95555F1
:10209000595555655555655555955555955556554B
:1020A000555A555565955595655655596955565521
:1020B00055555555555555555555555555555955CC
:1020C0005596555565556555556555556AAA5595A5
:1020D00056559556565556696559555A595555A5EB
:1020E000555565555595555A5555A5556A555555E6
:1020F000555555555555555555555555555559558C
:10210000559655556555555555555556AAA5555588
:10211000555555556AAAAA555955555955555955A4
:102120005559555565555565555595555A555555F6
:10213000555555555555555555555555555559554B
:1021400055965555655655555655555655555655EA
:102150005556555556955556695556565556559595
:10216000565565565555565555565555565555550A
:10217000555555555555555555555555555555550F
:1021800055555555555555555555555555555555FF
:10219000555595555595555AAAA5559565559595F5
:1021A000559555556555556555556555556555555F
:1021B00055555555555555555555555555555555CF
:1021C00055555555555555555555555555555555BF
:1021D0005555555556A9555559555559555559554E
:1021E0005559555559555559555559555AAA9555F5
:1021F000555555555555555555555555555555558F
:10220000555555555555555555555555555555557E
:10221000555555555AAA5555565555565555565511
:1022200056AA555556555556555556555AAA5555AB
:10223000555555555555555555555555555555554E
:10224000555555555555555555555555555555553E
:1022500055555555596565565965565965555565D0
:1022600055556555559555565555595555A5555579
:10227000555555555555555555555555555555550E
:1022800055555555555565556565A55AAA555595E4
:102290005555955555965555AAA55696595996563C
:1022A0006599566565566569565995595655A555AA
:1022B00055555555555555555555555555555555CE
:1022C0005555555555555555565555595595595575
:1022D0006565555965555965555665555665555643
:1022E00059595659656A56655655955555955555DA
:1022F000555555555555555555555555555555558E
:10230000555554001552AA854AAAA12A00A8285555
:10231000282855412855552855552855552855558F
:102320002855412855282A28A84AAAA152AA8554E6
:10233000281555555555555555555555550415544C
:10234000A28554000552AA854AAAA12A00A82855A8
:10235000282855282855282855282855282855281C
:102360002855282855282A00A84AAAA152AA8554E7
:1023700000155555555555555555555552008554CB
:10238000AA1554001552AA854AAAA12A02A12855C5
:1023900028285528285541284001282AA8282AA855
:1023A0002840282855282A00284AAAA852AAA85412
:1023B00000015555555555555555555554AA155463
:1023C000AA1554001552AA8552AA855428155528D5
:1023D000555528555528555528555528555528558E
:1023E00055285555285554281552AA8552AA855462
:1023F0000015555555555555555555555555555522
:10240000555554000552AAA14AAAA82A00282855C1
:10241000412855552A00154AAA8552AAA15400A858
:102420005555284169282828A82AAAA14AAA8550D2
:10243000281555555555555555555555695569697D
:10244000556941554128552828552828552828558B
:10245000282855282855282855282855282855281B
:102460002855282855282A00A84AAAA152AA8554E6
:1024700000155555555555555555555555555555A1
:1024800055554000012AAAA82AAAA8280001280018
:10249000152AAA852AAAA14000A8555528555528CD
:1024A0004155282855282A00A84AAAA152AA85548D
:1024B0000015555555555555555555555541554189
:1024C0001555551555455055541015142025554092
:1024D00019555105500055540005554101555004FA
:1024E00056541559555559555556555655AAA95529
:1024F000555555555555555555555555555555558C
:1025000055555555555655555595555565A95AAA7C
:102510005555565555559555559555556556955995
:102520005955A9595555595555569555556AA55555
:10253000555555555555555555555555555555554B
:1025400055555555555955555695555655555655F4
:102550005556555556555556555556555556555526
:10256000565555565556559559556565555A95556F
:10257000555555555555555555555555555555550B
:102580005555555555555655555595656AAA5A95FB
:102590009555559555699555969555969555969594
:1025A00055699555559555559555565555695555F2
:1025B00055555555555555555555555555555555CB
:1025C0005555555555555655565595565595565537
:1025D000956656AA5AA995565595565995565655E3
:1025E000565555565555565555559555556AA555F3
:1025F000555555555555555555555555555555558B
:10260000555555555555555565AA555A59555565FC
:102610005555955A565AA55AA59565565555595525
:10262000556555559555559555556555555AA55565
:10263000555555555555555555555555555555554A
:10264000555555555556555556565566A9555A55CD
:10265000555655555656A9595956595559595555BE
:10266000595555596555596555655A566555A95574
:10267000555555555555555555555555555555550A
:1026800055555555555595555596A565A9555A9580
:1026900055559555565555566AA5569559595556F9
:1026A00059555655555655555655555955AAA5552A
:1026B00055555555555555555555555555555555CA
:1026C0005555555555555555555555555AA566A504
:1026D000595955565555565555565555565555569D
:1026E0005555565555595555A5556A555555555530
:1026F000555555555555555555555555555555558A
:102700005555555555555555555AA965A5655A55AB
:1027100095555655555955556555556555559555C4
:10272000559555559555559555556555555AA55534
:102730005555555555555555555555555555555549
:1027400055555555555955555655555655555595F3
:1027500055559565559595559A5555A555565555C3
:1027600059555565555565555559555656AAA95546
:102770005555555555555555555555555555555509
:1027800055555555555595556596555AA95556550E
:10279000555956955955695959556559556556555F
:1027A00055565555AA5556569556566555A95955D7
:1027B00055555555555555555555555555555555C9
:1027C0005555555555655555595555595AA565553C
:1027D000596555566555596555556555556559554C
:1027E0006565556665556659565956A959555555E5
:1027F0005555555555555555555555555555555589
:102800005555555555556555655955595955595A43
:10281000A559A9595659565A59565A59566659568C
:102820006665566595A665A65A5996595655A65594
:102830005555555555555555555555555555555548
:102840005555555555565555559555559555659A62
:10285000A565A5595A95565695565A955659955661
:102860005995566595A665965A6596595695A655F5
:102870005555555555555555555555555555555508
:10288000555555555555555555555555AA9556595E
:10289000655959596559566559566559566565566C
:1028A00065655665955659955956556555569555CC
:1028B00055555555555555555555555555555555C8
:1028C0005555555555655655595595599596656AB9
:1028D000A9655595655595655595655595655595C4
:1028E000655565656AA5659569599566596A9555F1
:1028F0005555555555555555555555555555555588
:102900005555555555555555596595569565559592
:1029100069565566565565565565595565595565F7
:1029200059556559559556559556565555A9555568
:102930005555555555555555555555555555555547
:10294000555555555556555555A9555559555565CE
:1029500055559555559555556555555965556A992A
:102960006599566656565956555596555569555555
:102970005555555555555555555555555555555507
:10298000555555555555555555555555955555A567
:102990005556655556595559565559565565559577
:1029A00055556555556555555955555655555555B2
:1029B00055555555555555555555555555555555C7
:1029C0005555555555555555659569596A955955F6
:1029D000956555956595AA656A956555956555956D
:1029E000655565656AA5659569599566596A9555F0
:1029F0005555555555555555555555555555555587
:102A000055555555555555555559555959A556AAC4
:102A10005555595559596556AA95555955555955AC
:102A200055565556AA555956A559565956A955554C
:102A30005555555555555555555555555555555546
:102A400055555555555555555969555696555559D8
:102A50006555595955595955595955AA595665A940
:102A600059655A65956565959566565559595555F3
:102A70005555555555555555555555555555555506
:102A8000555555555556555555959565AA555A95CB
:102A9000555595655595595A955665955A65955567
:102AA0006595555A9555559555556556555AA95597
:102AB00055555555555555555555555555555555C6
:102AC0005555555555555955655655595655595697
:102AD00055596AA55696595A56565A5656665956D3
:102AE0006599566565566569565995595656A55561
:102AF0005555555555555555555555555555555586
:102B0000555555555555955555655559655556AABB
:102B1000555565555995556596555AA95955955622
:102B2000565556565559565559559565556A9555A4
:102B30005555555555555555555555555555555545
:102B400055555569555556555955555655A5565AC5
:102B50005965A5565A95565595565565595565A5C5
:102B600055655555595555595555565555565555FB
:102B70005555555555555555555555555555555505
:102B80005555555555555955655655596AA5599632
:102B90005965959666559666559666559659559615
:102BA000596659555AA555565555595555A5555512
:102BB00055555555555555555555555555555555C5
:102BC0005555555555556555555955555959555A94
:102BD000A555595555595555595555565555565547
:102BE0005AAA556556956556655A595955A555556C
:102BF0005555555555555555555555555555555585
:102C00005555559555556A555655955655555955D9
:102C100055595555595555596AA55995595A5556A5
:102C20005955565555565555595555A555AA5555A5
:102C30005555555555555555555555555555555544
:102C400055555555555555955955656555656555B0
:102C500059655559655559665559695559595565B7
:102C6000555565555595555595555655556955556F
:102C70005555555555555555555555555555555504
:102C8000555555555555555559556556AA95555649
:102C90005555595555655555AAA556555959555621
:102CA00065555655A55656595956566555AA9555C2
:102CB00055555555555555555555555555555555C4
:102CC00055555555555655555595555595A55596A2
:102CD000596699595AA5595695655A9565599565F4
:102CE000599565659565659559559556569555550A
:102CF0005555555555555555555555555555555584
:102D0000555555555555555559556556AA955556C8
:102D10005555595555655555AAA5565559595556A0
:102D2000655556555556555559555565555A9555E8
:102D30005555555555555555555555555555555543
:102D400055555014054A00A12A82A82AAAA82AAAE1
:102D5000A84AAAA14AAAA152AA8554AA155528553B
:102D60005541555555555555555555555555555527
:102D70005555555555555555555555555555555503
:102D80005555541055528A154A9A852AAAA14AAA1D
:102D90008552AA1554A85555215555455555555593
:102DA00055555555555555555555555555555555D3
:102DB00055555555555555555555555555555541D7
:102DC000515518445524485541485555485555487E
:102DD00055554855554855554855554855554855E4
:102DE000551915546A45546A45546A455515155583
:102DF0004055555555555555555555555555555598
:102E00005555555555555555555555555555555572
:102E10005555555555555555555555555555555562
:102E200055555555555555555555555500000000A6
:102E30000000555555555555555555550AAAA00AE2
:102E4000AAA00AAAA00AAAA00AAAA00AAAA00AAA34
:102E5000A00AAAA00AAAA00AAAA00AAAA00AAAA02E
:102E60000AAAA00AAAA00AAAA00AAAA00AAAA00AB4
:102E7000AAA0555555555555555555550555500507
:102E800055500AAAA00AAAA00AAAA00AAAA00AAA99
:102E9000A00AAAA00AAAA00AAAA00AAAA00AAAA0EE
:102EA0000AAAA00AAAA00AAAA00AAAA00AAAA00A74
:102EB000AAA05555555555555555555505555005C7
:102EC00055500555500555500AAAA00AAAA00AAAAD
:102ED000A00AAAA00AAAA00AAAA00AAAA00AAAA0AE
:102EE0000AAAA00AAAA00AAAA00AAAA00AAAA00A34
:102EF000AAA0555555555555555555550555500587
:102F000055500555500555500555500555500AAAC0
:102F1000A00AAAA00AAAA00AAAA00AAAA00AAAA06D
:102F20000AAAA00AAAA00AAAA00AAAA00AAAA00AF3
:102F3000AAA0555555555555555555550555500546
:102F400055500555500555500555500555500555DA
:102F5000500555500AAAA00AAAA00AAAA00AAAA027
:102F60000AAAA00AAAA00AAAA00AAAA00AAAA00AB3
:102F7000AAA0555555555555555555550555500506
:102F8000555005555005555005555005555005559A
:102F9000500555500555500555500AAAA00AAAA03B
:102FA0000AAAA00AAAA00AAAA00AAAA00AAAA00A73
:102FB000AAA05555555555555555555505555005C6
:102FC000555005555005555005555005555005555A
:102FD000500555500555500555500555500555504F
:102FE0000AAAA00AAAA00AAAA00AAAA00AAAA00A33
:102FF000AAA0555555555555555555550555500586
:103000005550055550055550055550055550055519
:10301000500555500555500555500555500555500E
:103020000555500555500AAAA00AAAA00AAAA00A46
:10303000AAA0555555555555555555550555500545
:1030400055500555500555500555500555500555D9
:1030500050055550055550055550055550055550CE
:103060000555500555500555500555500AAAA00A5A
:10307000AAA0555555555555555555550555500505
:103080005550055550055550055550055550055599
:10309000500555500555500555500555500555508E
:1030A00005555005555005555005555005555005C9
:1030B0005550555555555555555555550000000019
:1030C000000055555555555555555555555555555A
:1030D00055555555555555555555555555555555A0
:1030E0005555555555555555555555555555555590
:1030F0005555555555555555555555555555555580
:1031000055555555555AAAA95955595955595AAA57
:10311000A95955595955595AAAA955595555595545
:103120006AAAAA5559555559555559555559555580
:10313000555555555555555555555555555555553F
:1031400055555559555959595659655565555AAAA0
:10315000A95566556AAAAA559595565565596A594D
:1031600065565655AA5555955555956555AAA55573
:1031700055555555555555555555555555555555FF
:10318000555555555555AAA955555556AAAA56559A
:103190005656AAAA565555565595566AAA56559545
:1031A000565595565595565665595959656556550E
:1031B00055555555555555555555555555555555BF
:1031C000555555555556555556555556AAA95956FE
:1031D0005565565556AAA9565655565655565655DE
:1031E0006AAAAA55565555565555565555565555CC
:1031F000555555555555555555555555555555557F
:1032000055555555555555555AAAA95955595955B4
:10321000595955595AAAA95955595955595955598C
:103220005AAAA95955595955595955596555695564
:10323000555555555555555555555555555555553E
:1032400055555555555555555AAAA9595559595574
:10325000595955595955595955595AAAA95955594C
:103260005955595955595955595955595AAAA95540
:1032700055555555555555555555555555555555FE
:1032800055555555555559555559555959595659D5
:103290005956596555999555595555595555665528
:1032A00055665555959555959556556569555A5593
:1032B00055555555555555555555555555555555BE
:1032C000555555555555595555595555595955599A
:1032D000656A9995559A55559A55559A55559995A2
:1032E00056599556596559595965595655A95555BF
:1032F000555555555555555555555555555555557E
:10330000555555555555595555595555595555595D
:10331000556AAAAA555955556A555599955599957D
:1033200056596556596559595965595655595555FE
:10333000555555555555555555555555555555553D
:103340005555555555555955556655559595565597
:103350006569555A55AA955559555559555AAAA9A9
:103360005559555659655599655599956AAAAA555D
:1033700055555555555555555555555555555555FD
:1033800055555555555555555559555559555559E1
:10339000555559555AAAA95559555559555559551F
:1033A0005559555559555559555559556AAAAA55FE
:1033B00055555555555555555555555555555555BD
:1033C00055555555555565555559555559555AAA3B
:1033D000A955595555595555595555595556AAA593
:1033E0005559555559555559555559556AAAAA55BE
:1033F000555555555555555555555555555555557D
:1034000055555555555555596AA6595556596AA693
:10341000596566596AA6595556596AA65966665934
:103420006665596AA5596665596665596AA56955FB
:10343000555555555555555555555555555555553C
:10344000555555555555565555565556AAAA55567E
:103450005555AAA955555556AAAA565656565656C2
:1034600056AAAA565555565555595555655555554B
:1034700055555555555555555555555555555555FC
:1034800055555569555555555AAAA55655955655EC
:10349000955596556AAAA95555555AAAA5595565DF
:1034A0005955655AAAA55955655955655AAAA5553C
:1034B00055555555555555555555555555555555BC
:1034C000555555555555555555AA955655955956D1
:1034D000556AAAA99959595959595959595AAAA9CC
:1034E00059555559555559555559555656AAAA55D0
:1034F000555555555555555555555555555555557C
:10350000555555596565AAAA59996655AAAA559956
:103510006665AAAA59555555AAAA559555559AA909
:1035200059955559AAAA599996659969669A665501
:10353000555555555555555555555555555555553B
:10354000555555555555559565659659599956553D
:10355000955556656559595965565655955565960B
:10356000565999565595595665595959656556553F
:1035700055555555555555555555555555555555FB
:1035800055555555555555556A96A96596596A9696
:10359000A96596596A96A965555966AA9965965975
:1035A00065965966AA9965965965965966566955FC
:1035B00055555555555555555555555555555555BB
:1035C00055555555555555555955655955956AA6ED
:1035D00059599956599AAA599556659555659AAA71
:1035E000659956599956565956599956655AAA5534
:1035F000555555555555555555555555555555557B
:1036000055555555555656555956A96556595999B2
:10361000595659995955656565996AA6565665551D
:10362000565565666559666595666565565559557D
:10363000555555555555555555555555555555553A
:1036400055555555555555555AAAA955556555556C
:1036500095555655555955555655555655555655D2
:10366000555655555655555655555655556A5555F1
:1036700055555555555555555555555555555555FA
:1036800055555555555555955555956A5AA96655EB
:1036900095665595666AAA6A5559665559666AAA25
:1036A0006655596A65595559595555595555A9552C
:1036B00055555555555555555555555555555555BA
:1036C00055555555555595555595566AA99656557E
:1036D00096565596595596656596599596565996A6
:1036E00059659665959656955659655665596A5524
:1036F000555555555555555555555555555555557A
:103700005555555555555595556AAA6AA656565953
:1037100065566AAA5659655959655A9AAA699965AA
:10372000599965599AAA5999655999655A9AAA5504
:103730005555555555555555555555555555555539
:103740005555555555555555596AAA5555966A5565
:10375000965559966A56565569966A555A556655FC
:103760006A66666666666666666666556A65AA55D0
:1037700055555555555555555555555555555555F9
:1037800055555555555555555955955555956A5550
:10379000955555956A6AAA5555956A559555559505
:1037A0006A55956655956655956655956A5595552C
:1037B00055555555555555555555555555555555B9
:1037C0005555555555566AAA5665966AA596566535
:1037D00096566AAA56659656659656A5966A6AAA38
:1037E0005655955655955655955655955A55955540
:1037F0005555555555555555555555555555555579
:103800005555555555565655566AA9565555566AE5
:10381000A9596559696AA959555559AAAA59955678
:10382000595AA559559559559559559559569555DE
:103830005555555555555555555555555555555538
:10384000555555555555555555595555595555591C
:1038500055555955555955595AA9595955595955A3
:103860005959555959555959555959556AAAAA5529
:1038700055555555555555555555555555555555F8
:103880005555555555555555565555559555556597
:1038900055556555555955555955555955556655AB
:1038A00055665555959555959556556569555A558D
:1038B00055555555555555555555555555555555B8
:1038C00055555555555565555565555565555AAA1E
:1038D000A9556559556559556559556559556559E0
:1038E000556559559559559559565599595569558F
:1038F0005555555555555555555555555555555578
:103900005555555555555955555955555955595953
:10391000595959595959595AAAA955595555595585
:103920005559556559566559566559566AAAAA5545
:103930005555555555555555555555555555555537
:1039400055555555555695695955955AA5AA659693
:103950005965965956AAA956555956AAA956555960
:1039600056AAA956555956AAA95595655A555A5554
:1039700055555555555555555555555555555555F7
:1039800055555555555956A5595665AA56A55955D3
:1039900055596A6A596666596A6A5A5595A96AAA52
:1039A0005955955956A55959995959996965965531
:1039B00055555555555555555555555555555555B7
:1039C0005555555555565955565955565955565A92
:1039D000AA5966556996555956A959565559565575
:1039E0005956A9595655595655595655595655551A
:1039F0005555555555555555555555555555555577
:103A000055555555555559555556555AAAAA5559AE
:103A100055555955555AA555655955655955955991
:103A20005595595655595655655956656555955587
:103A30005555555555555555555555555555555536
:103A40005555555555555595655595595AA9565538
:103A500095555595655595596AAA565655555655D5
:103A60005659555659655959595965A6656A565555
:103A700055555555555555555555555555555555F6
:103A80005555555555565595566AAA565595566AE3
:103A9000AA596596696596596AAA595595596595C1
:103AA00059599559565559599559596559655A5500
:103AB00055555555555555555555555555555555B6
:103AC000555555555556AAAA56565656565656AA9F
:103AD000AA56565656565656AAAA5656565656568A
:103AE00056565656565659565659565665565A555E
:103AF0005555555555555555555555555555555576
:103B0000555555555555A9A9555959A9A9A9995971
:103B10005999A9A9995959A9659599AAAA996595F3
:103B2000996AA9A96595556AA9556595556AAA55D1
:103B30005555555555555555555555555555555634
:103B4000AAA556556556AAA556556556AAA5555512
:103B5000556AAAAA56596556AAA556596556AAA5E0
:103B600055595556AAA55559556AAAAA5555555598
:103B7000555555555555555555555555555555400A
:103B800000002AAAAA200008221488221288220AE9
:103B900088222A8822AA8822AA88222A88220A8899
:103BA0002212882214882000082AAAAA4000005560
:103BB00055555555555555555555555555555555B5
:103BC000555055554A5555485555485555485555DC
:103BD00048555548555548555548555548555548E3
:103BE00055554855554855554855554A55555055BC
:103BF00055555555555555555555555555555500CA
:103C00000000AAAAAA000000AAAAAAAAAAAAAAAA66
:103C1000AAAAAAAAAAAAAAAAAAAAAAAAAAAAAAAA04
:103C2000AAAAAAAAAAAA000000AAAAAA0000005545
:103C30005555555555555555555555555555550089
:103C40000000AAAAAA000000AAAA85AAAA85AAAA70
:103C500085AAAA85AAAA85AAAA85AAAA85AAAA85A2
:103C6000AAAA85AAAA85000000AAAAAA000000554F
:103C70005555555555555555555555555555550049
:103C80000000AAAAAA000000AAA155AAA155AAA1AB
:103C900055AAA155AAA155AAA155AAA155AAA155AF
:103CA000AAA155AAA155000000AAAAAA0000005581
:103CB0005555555555555555555555555555550009
:103CC0000000AAAAAA000000A85555A85555A85555
:103CD00055A85555A85555A85555A85555A85555F5
:103CE000A85555A85555000000AAAAAA00000055DD
:103CF00055555555555555555555555555555500C9
:103D00000000AAAAAA00000055555555555555550D
:103D10005555555555555555555555555555555553
:103D2000555555555555000000AAAAAA0000005542
:103D30005555555555555555555555555555550583
:103D40005555A155552155552155552155552155A7
:103D50005521555521555521555521555521555517
:103D6000215555215555215555A1555505555555A3
:103D70005555555555555555555555555555550048
:103D80000001AAAAA820000822148822848822A060
:103D90008822A88822AA8822AA8822A88822A08805
:103DA000228488221488200008AAAAA800000155AD
:103DB00055555555555555555555555555555455B4
:103DC0005552555052554A10554A0A55502A555485
:103DD000A055028554A28554A2855502855554A04C
:103DE00055502A554A0A554A105550525555525564
:103DF0005550555555555555555555551555558588
:103E0000555585055504A155A0A155A805550A1578
:103E100055528055528A15528A155280550A1555A9
:103E2000A80555A0A15504A15585055585555515DD
:103E30005555555555555555555555555555555532
:103E4000555055550A5554AA5552A0554A04554A3D
:103E500014552854552854552854552854554A1457
:103E6000554A045552A05554AA55550A5555505512
:103E70005555555555555555555555555555550542
:103E80005555A05555AA1555AA8555AAA155AAA1BB
:103E900055AAA855AAA855AAA855AAA855AAA15591
:103EA000AAA155AA8555AA1555A05555055555558C
:103EB00055555555555555555555555555554155C6
:103EC00055285554A8555288400A082AA84820A1C8
:103ED0004820A14820A14820A14820A1482AA8485C
:103EE000400A085552885554A855552855554155EE
:103EF0005555555555555555555555555551555576
:103F00006855555A1554121552821544828520A0C1
:103F10008528208548208528208520A08544828505
:103F2000528215541215555A155568555551555507
:103F30005555555555555555555555554000012A1A
:103F4000AAA8480021485521485521485521521416
:103F50008554821555285555285554821552148577
:103F60004855214855214855214800212AAAA840F2
:103F7000000155555555555555555555555555509F
:103F8000555552155552855552A15552A85552AA0C
:103F90001552AA8552AAA152AAA852AA0052AA054D
:103FA000520A85500A815552A15552A1555081554A
:103FB00055155555555555555555555555555555F1
:103FC00055555555555555555555555555555555A1
:103FD000555051514A0848208A28208888208888CE
:103FE0002A88082088482088482088482088484512
:103FF00011515555555555555555555555555555B9
:104000005555555555555555555555555555555560
:10401000554051512A0848208A28208888208888BD
:104020002A0808204848214848214848214848454E
:10403000515155555555555555555555AAAAAAAAE4
:10404000AAAAAAAAAAAAAAAAAAAAAAAAAAAAAAAAD0
:10405000AAAAAAAAAAAAAAAAAAAAAAAAAAAAAAAAC0
:10406000AAAAAAAAAAAAAAAAAAAAAAAAAAAAAAAAB0
:10407000AAAA55555555555555555555000000009A
:10408000250028002B0000000000240027002A0043
:1040900004040404040404040202020202020303EE
:1040A00003030303010204081020408001020408F6
:1040B00010200102040810204D2A3E2A11241FBEA0
:1040C000CFEFD8E0DEBFCDBF23E0A8E9B2E001C06A
:1040D0001D92A43BB207E1F712E0A0E0B1E0EEEFE1
:1040E000F5E502C005900D92A839B107D9F710E2A5
:1040F000CDE5D0E204C02197FE010E94E72ACC352D
:10410000D107C9F70E94DC260C94F22A0C94000017
:10411000FC01538D448D252F30E0842F90E0821BCD
:10412000930B541710F0CF96089501970895FC0152
:10413000918D828D981761F0828DDF01A80FB11DDE
:104140005D968C91928D9F5F9F73928F90E0089502
:104150008FEF9FEF0895FC01918D828D981731F0BC
:10416000828DE80FF11D858D90E008958FEF9FEF10
:104170000895FC01918D228D892F90E0805C9F4FE6
:10418000821B91098F73992708958AEA92E00E9411
:10419000B92021E0892B09F420E0822F0895FC0149
:1041A000848DDF01A80FB11DA35ABF4F2C91848DC0
:1041B00090E001968F739927848FA689B7892C93F5
:1041C000A089B1898C9180648C93938D848D981390
:1041D00006C00288F389E02D80818F7D8083089559
:1041E000EF92FF920F931F93CF93DF93EC0181E047
:1041F000888F9B8D8C8D981305C0E889F989808103
:1042000085FD24C0F62E0B8D10E00F5F1F4F0F733E
:104210001127E02E8C8DE8120CC00FB607FCFACFE8
:10422000E889F989808185FFF5CFCE010E94CF20F2
:10423000F1CF8B8DFE01E80FF11DE35AFF4FF082A5
:104240000B8FEA89FB898081806207C0EE89FF8934
:104250006083E889F98980818064808381E090E0CF
:10426000DF91CF911F910F91FF90EF900895CF9321
:10427000DF93EC01888D8823C9F0EA89FB8980816E
:1042800085FD05C0A889B9898C9186FD0FC00FB640
:1042900007FCF5CF808185FFF2CFA889B9898C9181
:1042A00085FFEDCFCE010E94CF20E7CFDF91CF91E8
:1042B000089580E090E0892B29F00E94C5208111AB
:1042C0000C940000089590E0FC01E859FF4F3491F0
:1042D000FC01EC55FF4B2491FC01E057FF4BE491AE
:1042E000EE2309F43BC0332339F1333091F038F435
:1042F0003130A9F0323001F584B58F7D12C03730EE
:1043000091F03830A1F03430B9F4809180008F7D85
:1043100003C0809180008F77809380000DC084B5AA
:104320008F7784BD09C08091B0008F7703C08091E2
:10433000B0008F7D8093B000F0E0EE0FFF1FE458D7
:10434000FF4BA591B4918FB7F894EC91611103C024
:1043500020952E2301C02E2B2C938FBF08952FB7AD
:10436000F8946091990270919A0280919B029091C9
:104370009C022FBF0895FC01828D238D8F5F948D49
:10438000992369F0682F70E0408D042E000C550BC6
:104390006417750724F02F5F81E0878F80E0958D8B
:1043A000992369F0622F70E0418D042E000C550BAB
:1043B0006417750724F081E0878F20E080E0F8948F
:1043C000828F238F30E0418D042E000C550B61E06D
:1043D000241735070CF060E090E0408D042E000CAF
:1043E000550B21E0841795070CF020E02623268F3B
:1043F0007894089560E070E080E89FE308958EBDB2
:1044000000000DB407FEFDCF8EB50895089580E03D
:1044100090E008951F920F920FB60F9211242F93E0
:104420003F934F935F936F937F938F939F93AF933C
:10443000BF93EF93FF938AEA92E00E94CF20FF910F
:10444000EF91BF91AF919F918F917F916F915F910C
:104450004F913F912F910F900FBE0F901F90189585
:104460001F920F920FB60F9211242F938F939F9349
:10447000EF93FF93E091BA02F091BB028081E0914B
:10448000C002F091C10282FD12C090818091C302EE
:104490008F5F8F732091C402821751F0E091C302A5
:1044A000F0E0E655FD4F958F8093C30201C08081F7
:1044B000FF91EF919F918F912F910F900FBE0F90D1
:1044C0001F9018953FB7F89480919D0290919E029D
:1044D000A0919F02B091A00226B5A89B05C02F3FD6
:1044E00019F00196A11DB11D3FBFBA2FA92F982F1A
:1044F0008827820F911DA11DB11DBC01CD0142E095
:10450000660F771F881F991F4A95D1F708958F92DC
:104510009F92AF92BF92CF92DF92EF92FF926B0188
:104520007C010E9462224B015C01C114D104E104B0
:10453000F104F1F00E946222DC01CB018819990993
:10454000AA09BB09883E9340A105B10570F321E09B
:10455000C21AD108E108F10888EE880E83E0981E9F
:10456000A11CB11CC114D104E104F10419F7DDCF81
:10457000FF90EF90DF90CF90BF90AF909F908F9083
:10458000089589E00E941B2561E089E00E94632173
:104590006AE070E080E090E00E94872260E089E0BD
:1045A0000E9463216AE070E080E090E00E94872230
:1045B00061E089E00C9463211F920F920FB60F9275
:1045C00011242F933F938F939F93AF93BF93809129
:1045D000990290919A02A0919B02B0919C02309115
:1045E000980223E0230F2D3720F40196A11DB11D61
:1045F00005C026E8230F0296A11DB11D2093980245
:104600008093990290939A02A0939B02B0939C028C
:1046100080919D0290919E02A0919F02B091A00274
:104620000196A11DB11D80939D0290939E02A093BF
:104630009F02B093A002BF91AF919F918F913F9144
:104640002F910F900FBE0F901F9018950F931F93EF
:10465000CF93DF93EC01062F142F8AA1882339F022
:10466000F8946FEFCE010E9450231AA27894EE8145
:10467000FF8120819D81909592239083802F0E94BD
:10468000FF21812F0E94FF21EE81FF8180819D818A
:10469000982B9083812FDF91CF911F910F910895D7
:1046A0001F93CF93DF93EC01162F8AA181110EC0C7
:1046B000F89464E8CE010E947B23482F416064E0B7
:1046C000CE010E94262381E08AA37894EE81FF81A7
:1046D00020819D81909592239083812F0E94FF21BC
:1046E000EE81FF8180819D81982B9083812FDF91C6
:1046F000CF911F9108951F93CF93DF93EC01162F55
:104700008AA1882339F0F8946FEFCE010E945023DC
:104710001AA27894EE81FF8120819D819095922349
:104720009083812F0E94FF218FEF0E94FF21EE8155
:10473000FF8120819D81922B9083DF91CF911F91EA
:104740000895EF92FF921F93CF93DF93EC018E8D2C
:1047500081110AC0CE010E94BB2181E090E09B83C1
:104760008A8380E090E04CC08889813041F467FD05
:1047700008C0E62FF0E0E050FF4F108103C0823008
:1047800009F4162F8F8D81110AC08AA1882339F070
:104790001F3F29F0612FCE010E9450232CC08F892A
:1047A0002B8D022E000C330B280F311D87FD3A95FF
:1047B0008EE1829F7001839FF00C11242E898A8DD7
:1047C000082E000C990B820F911D27FD9A95E80E7B
:1047D000F91E4F2D65E0CE010E9426234E2D66E086
:1047E000CE010E9426231F8E1F3FA1F64FEF67E0E8
:1047F000CE010E942623CE010E94BB2181E090E0E1
:10480000DF91CF911F91FF90EF9008950F931F9329
:10481000CF93DF93EC0189A1811103C088A181119D
:1048200023C00E9462220A851B852C853D850617C0
:1048300017072807390710F081E017C088A18823DF
:1048400099F060EACE010E947B238823A9F386FDBC
:10485000F3CF6CEECE010E947B23482F4F7E6CE697
:10486000CE010E94262319A280E0DF91CF911F91F3
:104870000F910895CF93DF93FC0120A12223E1F053
:10488000EC010E940624811117C0F89442E060E018
:10489000CE010E94262381E089A30E946222DC01CE
:1048A000CB0182599F4FAF4FBF4F8A879B87AC8701
:1048B000BD87198A1E8E7894DF91CF9108950F934A
:1048C0001F93CF93DF938091AF03882391F08FE8FC
:1048D00093E00E94062481110CC064E88FE893E005
:1048E0000E947B23482F446064E08FE893E00E949D
:1048F000262362E070E080E090E00E9487228091B1
:10490000AF03811101C0FFCF8FE893E00E9406241E
:104910008111F5CF60EA8FE893E00E947B23182F86
:10492000107184FDECCFD0E001E0C0E08091AF03D6
:104930008823D1F08091A703C81764F48091A8035D
:10494000D81744F4F894C093A903D093AA03009312
:10495000AD0307C0F894C093A903D093AA031092A3
:10496000AD030093AE0378946C2F610F8FE893E052
:104970000E94A123CF5FC431C9F6DF5F1C5EDD302A
:10498000A1F6DF91CF911F910F910895CF92DF9201
:10499000EF92FF920F931F93CF93DF936C017A01F5
:1049A0008B01C0E0D0E0CE15DF0589F0D8016D9114
:1049B0008D01D601ED91FC910190F081E02DC601B1
:1049C0000995892B11F47E0102C02196ECCFC70115
:1049D000DF91CF911F910F91FF90EF90DF90CF90DB
:1049E00008950E94ED2AEAEAF2E0A089B18982E006
:1049F0008C93A485B5851C92A685B78580E18C93A0
:104A0000108EA489B58986E08C93A289B3898C9194
:104A100080618C93A289B3898C9188608C93A289E0
:104A2000B3898C9180688C930288F389E02D808112
:104A30008F7D8083089590E0FC01EC55FF4B24911D
:104A4000FC01E057FF4B8491882399F090E0880F98
:104A5000991FFC01EA57FF4BA591B491FC01E45862
:104A6000FF4B859194918FB7F894EC91E22BEC93E6
:104A70008FBF08958091AF03882381F08FE893E082
:104A80000E94062481110AC04091A003486040930F
:104A9000A00360E08FE893E00C9426230895CF9361
:104AA000C091AF03C11102C0C0E00CC08FE893E019
:104AB0000E9406248111F8CF4DE26CE08FE893E06C
:104AC0000E9426238C2FCF9108958091AF038823D5
:104AD00099F08FE893E00E94062481110DC0409167
:104AE000A00340644093A00360E08FE893E00E943D
:104AF000262381E080939E0380E00895EF92FF9249
:104B00000F931F93CF93DF931F92CDB7DEB78091A2
:104B100093030E941B258091930390E0FC01EC55C8
:104B2000FF4B249120939403FC01E057FF4BE49149
:104B3000F0E0EE0FFF1FE458FF4BA591B491B09346
:104B40009603A0939503EC91E22BEC9383EB93E017
:104B500090939803809397038CB58F7D8CBD809143
:104B6000AF03811113C081E08093AF0360EA8FE847
:104B700093E00E947B238823C9F360EA8FE893E0E7
:104B80000E947B2386FDF9CF1092B003F090AF0313
:104B9000F11002C0F12C5CC08FE893E00E94062463
:104BA0008111F8CF8091AF03882391F08FE893E0D3
:104BB0000E94062481110CC060EA8FE893E00E94F5
:104BC0007B2381FD0BC080FF03C080E12EE008C085
:104BD00080919E038130C9F38230E1F68DE02CE0B4
:104BE000982F921B092F017089E0089F80011124E2
:104BF000E92EE6940115110519F002511109E3940B
:104C00001092A3034091A103405E62E08FE893E01D
:104C100029830E94262382E08093A5038AE1809362
:104C2000A7030093A4034091A203405F400F63E0F9
:104C30008FE893E00E942623E092A6032981209327
:104C4000A8031092A9031092AA0381E08093AD03F8
:104C50006CEE8FE893E00E947B23482F4F7E6CE63A
:104C60008FE893E00E942623F092AD038F2D0F90E2
:104C7000DF91CF911F910F91FF90EF9008956115F3
:104C8000710579F0FB0101900020E9F73197AF0140
:104C9000461B570BDC01ED91FC910280F381E02D66
:104CA000099480E090E008954F925F926F927F9216
:104CB000EF92FF920F931F93CF93DF93CDB7DEB7A1
:104CC000A1970FB6F894DEBF0FBECDBF7C01FA01ED
:104CD000CB0119A2223008F42AE08E010F5D1F4F8C
:104CE000422E512C612C712CBF01A30192010E9414
:104CF000C52AF901CA01015011096A3014F4605D36
:104D000001C0695CD8016C93232B242B252B61F700
:104D1000B801C7010E943F26A1960FB6F894DEBFE6
:104D20000FBECDBFDF91CF911F910F91FF90EF90FC
:104D30007F906F905F904F900895CF92DF92EF92A7
:104D4000FF92CF93DF936B017C01E091AA02F09177
:104D5000AB020190F081E02D6DE28AEA92E00995C4
:104D6000EC0144275527BA014C195D096E097F09EA
:104D70002AE08AEA92E00E9454268C0F9D1FDF9160
:104D8000CF91FF90EF90DF90CF9008950F931F93F6
:104D9000CF93DF93EC010E943F268C016FEA71E014
:104DA000CE010E943F26800F911FDF91CF911F916E
:104DB0000F9108950C943F26789484B5826084BD49
:104DC00084B5816084BD85B5826085BD85B581600F
:104DD00085BD80916E00816080936E00109281008D
:104DE0008091810082608093810080918100816048
:104DF0008093810080918000816080938000809109
:104E0000B10084608093B1008091B0008160809394
:104E1000B00080917A00846080937A0080917A005B
:104E2000826080937A0080917A00816080937A001A
:104E300080917A00806880937A001092C10010926D
:104E40008B0310928C0310928D0310928E0310929C
:104E5000490310924A0310924B0310924C030E9494
:104E6000AF216B017C014B015C0128EB820E2BE032
:104E7000921EA11CB11C0E94AF216C157D058E05F0
:104E80009F0528F086169706A806B906A0F78AEAB5
:104E900092E090938A03809389030E94F3240E94F6
:104EA000AF216093490370934A0380934B0390931F
:104EB0004C0360EA71E08091890390918A030E941B
:104EC000DA260E94AF216B017C014B015C013AE0C4
:104ED000830E911CA11CB11C0E94AF216C157D0595
:104EE0008E059F0528F086169706A806B906A0F736
:104EF00081E080935D0368EE73E080E090E00E94C3
:104F000087220E94F3248AEA92E00E94372162EB12
:104F100071E08AEA92E00E94C6260E94C122CFB7C1
:104F2000F8948091A102811124C0EAE9F0E484910F
:104F3000EEEAF0E49491E82FF0E0EE0FFF1FEA575D
:104F4000FF4BA591B491EC91E92321F461E08AE053
:104F50000E9463218AE00E941B258CB580618CBD74
:104F60008CB580648CBD8DE00E941B258BE00E9477
:104F70001B258091A1028F5F8093A102CFBF8CB5CA
:104F80008C7F8CBD8DB581608DBD0E947E250E9479
:104F900065250E944F250E943A258091AF03882302
:104FA00019F082E080939F031092AB031092AC0340
:104FB0006AEB71E08AEA92E00E94C6260E945F24B2
:104FC00060EE71E08AEA92E00E94DA262AE040E090
:104FD00050E460E070E08AEA92E00E94542662EFBA
:104FE00071E08AEA92E00E94C6266EEF71E08AEADA
:104FF00092E00E94C62694EFC92EDD24D394E12CC2
:10500000F12C12E001E00E94AF21672B682B692B85
:1050100041F40E94AF21623071058105910508F4C9
:1050200012C10E94AF216093A6027093A7028093E1
:10503000A8029093A9028090A2029090A302A0904F
:10504000A402B090A502681579058A059B0540F475
:105050006093A2027093A3028093A4029093A5028E
:105060008090A2029090A302A090A402B090A5020A
:105070009B01AC01281939094A095B0949015A0108
:105080003AEF83169104A104B10408F4DCC06093E4
:10509000A2027093A3028093A4029093A502C092EF
:1050A0005503D0925603E0925703F09258031092A2
:1050B000590310925A0310925B0310925C03809183
:1050C0004D0390914E03A0914F03B09150038093F4
:1050D000510390935203A0935303B09354030E943F
:1050E000AF2160934D0370934E0380934F039093D1
:1050F00050030E94AF216093490370934A03809349
:105100004B0390934C030E94AF214B015C0167E07D
:1051100072E08091890390918A030E94DA262AE046
:1051200041E050E060E070E08091890390918A0353
:105130000E9454266EE072E08091890390918A0368
:105140000E94DA262AE0B501A4018091890390919A
:105150008A030E94542660E172E080918903909155
:105160008A030E94DA2680914D0390914E03A0910C
:105170004F03B0915003B501A401481B590B6A0BB2
:105180007B0B2AE08091890390918A030E94542628
:1051900060E172E08091890390918A030E94DA268F
:1051A00040914D0350914E0360914F037091500315
:1051B0008091510390915203A0915303B0915403F5
:1051C000481B590B6A0B7B0B2AE080918903909155
:1051D0008A030E94542662E172E0809189039091D3
:1051E0008A030E94DA260E94AF21AB01BC012AE0AB
:1051F0008091890390918A030E94542664E172E0B1
:105200008091890390918A030E94C6260E94AF2153
:105210002B013C014B015C0145E0840E911CA11C5B
:10522000B11C0E94AF21641575058605970508F02D
:10523000EAC00E94AF2160934D0370934E038093A8
:105240004F03909350038AEA92E00E94B920181607
:1052500019060CF0D5C08AEA92E00E94972099279F
:105260008235910509F4C6C08CF48F33910509F499
:1052700093C08434910509F0B7C06BE172E08AEA0B
:1052800092E00E94C626C0E0D0E023C0823791059C
:1052900009F47DC08337910509F0A6C00E945F2400
:1052A000A9C08FE893E00E940624882309F16FE5E6
:1052B00072E08AEA92E00E94C6266EE170E080E029
:1052C00090E00E9487222196CF3FD10511F00CF08B
:1052D000A5C02AE0AE010D2E000C660B770B8AEA02
:1052E00092E00E9454268091AF03882301F3D9CF26
:1052F00060E88FE893E00E947B2383FF0BC040911E
:10530000A003477F4093A00360E08FE893E00E94F2
:10531000262380C060EA8FE893E00E947B2385FD0E
:1053200079C08091B20381112FC04C2F69E08FE8C2
:1053300093E00E9426234E0186E0880C991C8A95F2
:10534000E1F7A12CB12C4A2D6AE08FE893E00E948E
:105350002623F501E80DF91DE458FF4F44916BE059
:105360008FE893E00E9426235FEFA51AB50A86E333
:10537000A816B10441F740EA68E08FE893E00E9484
:1053800026230093B20346C01092B20390CF8FE859
:1053900093E00E943A242EC06BE772E08AEA92E022
:1053A0000E94DA268091AF03882371F08FE893E0A2
:1053B0000E940624811108C060EA8FE893E00E94F1
:1053C0007B2341E0811101C040E050E060E070E0EB
:1053D0002AE08AEA92E00E9454266FEA71E08AEAA3
:1053E00092E00E943F2606C061E872E08AEA92E0FD
:1053F0000E94C6266EEF71E08AEA92E00E94C626FD
:105400000E94592100CE86169706A806B90608F014
:1054100008CF0FCF219761E972E04BCF65E572E0CD
:105420008AEA92E00E94C6260E94C12268EE73E0DA
:1054300080E090E00E9487226FE572E08AEA92E0C5
:105440000E94C6260E947E250E9465250E944F2547
:105450000E943A258091AF03811110939F0310920F
:10546000AB031092AC030E945F2461EB71E08AEA07
:1054700092E00E94C62663E672E0B8CF86E991E02A
:105480009093900380938F038091AF03882321F042
:105490008FE893E00C943A240895CF93DF93EAEADF
:1054A000F2E01382128288EE93E0A0E0B0E0848301
:1054B0009583A683B78384E891E09183808385EC0C
:1054C00090E09587848784EC90E09787868780ECCE
:1054D00090E0918B808B81EC90E0938B828B82ECBF
:1054E00090E0958B848B86EC90E0978B868B118E69
:1054F000128E138E148EE7E4F3E016821782108664
:105500001186128613861486158616861786108ACB
:10551000118A128A138A148A158ACFE8D3E01B8273
:105520001A8286E991E09983888388E08C831D82C2
:105530001F821E82198618860E946222DC01CB011E
:10554000805B9C43AF4FBF4F8A879B87AC87BD87EB
:1055500081E08E8792E09F87888B1A8A1B8A1C8A3B
:105560001D8A1E8A1F8A9EE1988F90E1998F1A8E5C
:105570001B8E198A1C8E1D8E1E8E8F8F18A289A3DA
:105580001AA21BA2DF91CF910895A1E21A2EAA1BA5
:10559000BB1BFD010DC0AA1FBB1FEE1FFF1FA217E3
:1055A000B307E407F50720F0A21BB30BE40BF50BE0
:1055B000661F771F881F991F1A9469F76095709569
:1055C000809590959B01AC01BD01CF010895EE0F30
:1055D000FF1F0590F491E02D099481E090E0F8948C
:1055E0000C94F22A10E2CDE5D0E204C0FE010E9444
:0E55F000E72A2196CE35D107C9F7F894FFCFF0
:1055FE00000000000000000000000000000000009D
:10560E00000000000000000000000000000000008C
:10561E0000004800000000463F4000004549414759
:10562E000A01020304050607080944434A004B42D7
:10563E004C0B0C0D0E0F1011121314151617181902
:10564E001A1B1C1D1E1F20212223240000000000F7
:10565E000025262728292A2B2C2D2E2F30313233A8
:10566E003435363738393A3B3C3D3E0000000000B9
:10567E0000000000F020C62488203721B920972092
:10568E00AB2000000000A123C62407220622FA2127
:10569E00564D4450565F317C315F564D4450560D39
:1056AE000A006C6F6164696E6700526561647920EF
:1056BE00666F7220636F6D6D616E64733A20442065
:1056CE002D20646F776E6C6F616420666F6E740050
:1056DE00456D62656464656420666F6E74206973DF
:1056EE0020006279746573206C6F6E672E004D41D9
:1056FE0058373435363E00564D4450455F003A32E9
:10570E003A007C005F564D44504500446F776E6CF6
:10571E006F6164696E6720666F6E7420746F204DC2
:10572E00415837343536204E564D2C2074686973E7
:10573E00206D61792074616B652061207768696CDA
:10574E00652E2E2E00205265736574696E670020DB
:10575E004F4B00446F6E65207769746820666F6EDC
:10576E007420646F776E6C6F616400535441543DC6
:10577E0000696E76616C696420636F6D6D616E6435
:08578E0000204641494C0000D7
:00000001FF
